{
  "_format": "hh-sol-artifact-1",
  "contractName": "SubscriptionManager",
  "sourceName": "contracts/SubscriptionManager.sol",
  "abi": [
    {
      "anonymous": false,
      "inputs": [
        {
          "indexed": true,
          "internalType": "address",
          "name": "user",
          "type": "address"
        },
        {
          "indexed": true,
          "internalType": "address",
          "name": "recipient",
          "type": "address"
        },
        {
          "indexed": false,
          "internalType": "uint256",
          "name": "amount",
          "type": "uint256"
        }
      ],
      "name": "PaymentExecuted",
      "type": "event"
    },
    {
      "anonymous": false,
      "inputs": [
        {
          "indexed": true,
          "internalType": "address",
          "name": "user",
          "type": "address"
        },
        {
          "indexed": true,
          "internalType": "address",
          "name": "recipient",
          "type": "address"
        },
        {
          "indexed": false,
          "internalType": "uint256",
          "name": "amount",
          "type": "uint256"
        },
        {
          "indexed": false,
          "internalType": "uint256",
          "name": "frequency",
          "type": "uint256"
        },
        {
          "indexed": false,
          "internalType": "uint256",
          "name": "totalLimit",
          "type": "uint256"
        }
      ],
      "name": "PaymentScheduled",
      "type": "event"
    },
    {
      "inputs": [
        {
          "internalType": "address",
          "name": "_recipient",
          "type": "address"
        },
        {
          "internalType": "uint256",
          "name": "_amount",
          "type": "uint256"
        },
        {
          "internalType": "string",
          "name": "_frequency",
          "type": "string"
        },
        {
          "internalType": "uint256",
          "name": "_totalLimit",
          "type": "uint256"
        }
      ],
      "name": "createPaymentSchedule",
      "outputs": [],
      "stateMutability": "payable",
      "type": "function"
    },
    {
      "inputs": [],
      "name": "executePayments",
      "outputs": [],
      "stateMutability": "nonpayable",
      "type": "function"
    },
    {
      "inputs": [
        {
          "internalType": "address",
          "name": "_user",
          "type": "address"
        }
      ],
      "name": "getUserSchedules",
      "outputs": [
        {
          "components": [
            {
              "internalType": "address",
              "name": "recipient",
              "type": "address"
            },
            {
              "internalType": "uint256",
              "name": "amount",
              "type": "uint256"
            },
            {
              "internalType": "uint256",
              "name": "frequency",
              "type": "uint256"
            },
            {
              "internalType": "uint256",
              "name": "totalLimit",
              "type": "uint256"
            },
            {
              "internalType": "uint256",
              "name": "nextPaymentTime",
              "type": "uint256"
            },
            {
              "internalType": "uint256",
              "name": "totalPaid",
              "type": "uint256"
            }
          ],
          "internalType": "struct SubscriptionManager.PaymentSchedule[]",
          "name": "",
          "type": "tuple[]"
        }
      ],
      "stateMutability": "view",
      "type": "function"
    },
    {
      "inputs": [
        {
          "internalType": "address",
          "name": "",
          "type": "address"
        },
        {
          "internalType": "uint256",
          "name": "",
          "type": "uint256"
        }
      ],
      "name": "userSchedules",
      "outputs": [
        {
          "internalType": "address",
          "name": "recipient",
          "type": "address"
        },
        {
          "internalType": "uint256",
          "name": "amount",
          "type": "uint256"
        },
        {
          "internalType": "uint256",
          "name": "frequency",
          "type": "uint256"
        },
        {
          "internalType": "uint256",
          "name": "totalLimit",
          "type": "uint256"
        },
        {
          "internalType": "uint256",
          "name": "nextPaymentTime",
          "type": "uint256"
        },
        {
          "internalType": "uint256",
          "name": "totalPaid",
          "type": "uint256"
        }
      ],
      "stateMutability": "view",
      "type": "function"
    },
    {
      "inputs": [],
      "name": "withdrawUnusedFunds",
      "outputs": [],
      "stateMutability": "nonpayable",
      "type": "function"
    }
  ],
  "bytecode": "0x6080604052348015600f57600080fd5b506113408061001f6000396000f3fe60806040526004361061004a5760003560e01c806357cb96681461004f57806394882d141461006b5780639e3f8e9014610082578063b40b223d146100c4578063e6dd299f14610101575b600080fd5b61006960048036038101906100649190610bd2565b610118565b005b34801561007757600080fd5b50610080610450565b005b34801561008e57600080fd5b506100a960048036038101906100a49190610c55565b6106a9565b6040516100bb96959493929190610cb3565b60405180910390f35b3480156100d057600080fd5b506100eb60048036038101906100e69190610d14565b610722565b6040516100f89190610e89565b60405180910390f35b34801561010d57600080fd5b50610116610847565b005b8034101561015b576040517f08c379a000000000000000000000000000000000000000000000000000000000815260040161015290610f08565b60405180910390fd5b60007f862c0c7ce08040b357c0f2fcd8993fa63f3c76879bcaf95b61d24474396903748360405160200161018f9190610f99565b60405160208183030381529060405280519060200120036101b55762093a8090506102a3565b7f439ac36a45954f1e10d3dc72fc4998e73c2520c7c53dc2d7de3db15abf779218836040516020016101e79190610f99565b604051602081830303815290604052805190602001200361020d5762278d0090506102a2565b7f65ede4dbc3941307a8f1bb670a4a4990d35d0b96029e73e4395fdd569a8dd40b8360405160200161023f9190610f99565b6040516020818303038152906040528051906020012003610266576301e1338090506102a1565b6040517f08c379a000000000000000000000000000000000000000000000000000000000815260040161029890611022565b60405180910390fd5b5b5b600081426102b19190611071565b905060006040518060c001604052808873ffffffffffffffffffffffffffffffffffffffff168152602001878152602001848152602001858152602001838152602001600081525090506000803373ffffffffffffffffffffffffffffffffffffffff1673ffffffffffffffffffffffffffffffffffffffff16815260200190815260200160002081908060018154018082558091505060019003906000526020600020906006020160009091909190915060008201518160000160006101000a81548173ffffffffffffffffffffffffffffffffffffffff021916908373ffffffffffffffffffffffffffffffffffffffff1602179055506020820151816001015560408201518160020155606082015181600301556080820151816004015560a0820151816005015550508673ffffffffffffffffffffffffffffffffffffffff163373ffffffffffffffffffffffffffffffffffffffff167fc3f42d71280540e25df55e9b83aec403b2e8f8d1883a3e4256f7e2237f016c1f88868860405161043f939291906110a5565b60405180910390a350505050505050565b60008060003373ffffffffffffffffffffffffffffffffffffffff1673ffffffffffffffffffffffffffffffffffffffff168152602001908152602001600020905060005b81805490508110156106a55760008282815481106104b6576104b56110dc565b5b90600052602060002090600602019050806004015442101580156104f157508060030154816001015482600501546104ee9190611071565b11155b1561069757806002015481600401600082825461050e9190611071565b92505081905550806001015481600501600082825461052d9190611071565b9250508190555060008160000160009054906101000a900473ffffffffffffffffffffffffffffffffffffffff1673ffffffffffffffffffffffffffffffffffffffff1682600101546040516105829061113c565b60006040518083038185875af1925050503d80600081146105bf576040519150601f19603f3d011682016040523d82523d6000602084013e6105c4565b606091505b5050905080610608576040517f08c379a00000000000000000000000000000000000000000000000000000000081526004016105ff9061119d565b60405180910390fd5b8160000160009054906101000a900473ffffffffffffffffffffffffffffffffffffffff1673ffffffffffffffffffffffffffffffffffffffff163373ffffffffffffffffffffffffffffffffffffffff167f107f47a72001748abd3c158810f2111e5fdab22dbbfc1d9c5578889e8da5c408846001015460405161068d91906111bd565b60405180910390a3505b508080600101915050610495565b5050565b600060205281600052604060002081815481106106c557600080fd5b9060005260206000209060060201600091509150508060000160009054906101000a900473ffffffffffffffffffffffffffffffffffffffff16908060010154908060020154908060030154908060040154908060050154905086565b60606000808373ffffffffffffffffffffffffffffffffffffffff1673ffffffffffffffffffffffffffffffffffffffff168152602001908152602001600020805480602002602001604051908101604052809291908181526020016000905b8282101561083c57838290600052602060002090600602016040518060c00160405290816000820160009054906101000a900473ffffffffffffffffffffffffffffffffffffffff1673ffffffffffffffffffffffffffffffffffffffff1673ffffffffffffffffffffffffffffffffffffffff1681526020016001820154815260200160028201548152602001600382015481526020016004820154815260200160058201548152505081526020019060010190610782565b505050509050919050565b60004790506000808060003373ffffffffffffffffffffffffffffffffffffffff1673ffffffffffffffffffffffffffffffffffffffff168152602001908152602001600020905060005b81805490508110156108dd578181815481106108b1576108b06110dc565b5b906000526020600020906006020160050154836108ce9190611071565b92508080600101915050610892565b50600082846108ec91906111d8565b905060008111610931576040517f08c379a00000000000000000000000000000000000000000000000000000000081526004016109289061127e565b60405180910390fd5b60003373ffffffffffffffffffffffffffffffffffffffff16826040516109579061113c565b60006040518083038185875af1925050503d8060008114610994576040519150601f19603f3d011682016040523d82523d6000602084013e610999565b606091505b50509050806109dd576040517f08c379a00000000000000000000000000000000000000000000000000000000081526004016109d4906112ea565b60405180910390fd5b5050505050565b6000604051905090565b600080fd5b600080fd5b600073ffffffffffffffffffffffffffffffffffffffff82169050919050565b6000610a23826109f8565b9050919050565b610a3381610a18565b8114610a3e57600080fd5b50565b600081359050610a5081610a2a565b92915050565b6000819050919050565b610a6981610a56565b8114610a7457600080fd5b50565b600081359050610a8681610a60565b92915050565b600080fd5b600080fd5b6000601f19601f8301169050919050565b7f4e487b7100000000000000000000000000000000000000000000000000000000600052604160045260246000fd5b610adf82610a96565b810181811067ffffffffffffffff82111715610afe57610afd610aa7565b5b80604052505050565b6000610b116109e4565b9050610b1d8282610ad6565b919050565b600067ffffffffffffffff821115610b3d57610b3c610aa7565b5b610b4682610a96565b9050602081019050919050565b82818337600083830152505050565b6000610b75610b7084610b22565b610b07565b905082815260208101848484011115610b9157610b90610a91565b5b610b9c848285610b53565b509392505050565b600082601f830112610bb957610bb8610a8c565b5b8135610bc9848260208601610b62565b91505092915050565b60008060008060808587031215610bec57610beb6109ee565b5b6000610bfa87828801610a41565b9450506020610c0b87828801610a77565b935050604085013567ffffffffffffffff811115610c2c57610c2b6109f3565b5b610c3887828801610ba4565b9250506060610c4987828801610a77565b91505092959194509250565b60008060408385031215610c6c57610c6b6109ee565b5b6000610c7a85828601610a41565b9250506020610c8b85828601610a77565b9150509250929050565b610c9e81610a18565b82525050565b610cad81610a56565b82525050565b600060c082019050610cc86000830189610c95565b610cd56020830188610ca4565b610ce26040830187610ca4565b610cef6060830186610ca4565b610cfc6080830185610ca4565b610d0960a0830184610ca4565b979650505050505050565b600060208284031215610d2a57610d296109ee565b5b6000610d3884828501610a41565b91505092915050565b600081519050919050565b600082825260208201905092915050565b6000819050602082019050919050565b610d7681610a18565b82525050565b610d8581610a56565b82525050565b60c082016000820151610da16000850182610d6d565b506020820151610db46020850182610d7c565b506040820151610dc76040850182610d7c565b506060820151610dda6060850182610d7c565b506080820151610ded6080850182610d7c565b5060a0820151610e0060a0850182610d7c565b50505050565b6000610e128383610d8b565b60c08301905092915050565b6000602082019050919050565b6000610e3682610d41565b610e408185610d4c565b9350610e4b83610d5d565b8060005b83811015610e7c578151610e638882610e06565b9750610e6e83610e1e565b925050600181019050610e4f565b5085935050505092915050565b60006020820190508181036000830152610ea38184610e2b565b905092915050565b600082825260208201905092915050565b7f496e73756666696369656e742066756e64732073656e742e0000000000000000600082015250565b6000610ef2601883610eab565b9150610efd82610ebc565b602082019050919050565b60006020820190508181036000830152610f2181610ee5565b9050919050565b600081519050919050565b600081905092915050565b60005b83811015610f5c578082015181840152602081019050610f41565b60008484015250505050565b6000610f7382610f28565b610f7d8185610f33565b9350610f8d818560208601610f3e565b80840191505092915050565b6000610fa58284610f68565b915081905092915050565b7f496e76616c6964206672657175656e63792e2043686f6f736520277765656b6c60008201527f79272c20276d6f6e74686c79272c206f722027796561726c79272e0000000000602082015250565b600061100c603b83610eab565b915061101782610fb0565b604082019050919050565b6000602082019050818103600083015261103b81610fff565b9050919050565b7f4e487b7100000000000000000000000000000000000000000000000000000000600052601160045260246000fd5b600061107c82610a56565b915061108783610a56565b925082820190508082111561109f5761109e611042565b5b92915050565b60006060820190506110ba6000830186610ca4565b6110c76020830185610ca4565b6110d46040830184610ca4565b949350505050565b7f4e487b7100000000000000000000000000000000000000000000000000000000600052603260045260246000fd5b600081905092915050565b50565b600061112660008361110b565b915061113182611116565b600082019050919050565b600061114782611119565b9150819050919050565b7f5061796d656e74206661696c6564000000000000000000000000000000000000600082015250565b6000611187600e83610eab565b915061119282611151565b602082019050919050565b600060208201905081810360008301526111b68161117a565b9050919050565b60006020820190506111d26000830184610ca4565b92915050565b60006111e382610a56565b91506111ee83610a56565b925082820390508181111561120657611205611042565b5b92915050565b7f4e6f2066756e647320617661696c61626c6520666f722077697468647261776160008201527f6c00000000000000000000000000000000000000000000000000000000000000602082015250565b6000611268602183610eab565b91506112738261120c565b604082019050919050565b600060208201905081810360008301526112978161125b565b9050919050565b7f5769746864726177616c206661696c6564000000000000000000000000000000600082015250565b60006112d4601183610eab565b91506112df8261129e565b602082019050919050565b60006020820190508181036000830152611303816112c7565b905091905056fea264697066735822122061c19f14c8c0bdc8ed2b0c2f4377bd186966374398ad11a3fae67bda10e160f664736f6c634300081b0033",
  "linkReferences": {},
  "deployedLinkReferences": {}
}